:100000002CC03BC03AC039C038C037C036C035C03C
:1000100034C033C032C031C030C02FC02EC02DC05C
:100020002CC02BC02AC029C072C47EC480C482C424
:1000300084C486C488C4F4C503C6F4C5F5C5F6C532
:10004000F7C5F8C5F9C5FAC521C628C623C62AC60C
:1000500030C636C638C63AC63CC611241FBECFEFDE
:10006000D2E0DEBFCDBF21E0A0E0B1E001C01D9233
:10007000AA36B207E1F78BD73FC8C2CF8ED585D657
:1000800060E081E038D6EDE0F1E083E0808381E05C
:1000900081838283838384838AE0858316821782A7
:1000A0001086118612861386148615861686178684
:1000B000108A118A80E197E2A0E0B0E0828B938BF6
:1000C000A48BB58BE7E0F1E080EE9EE29183808324
:1000D0001382128215821482109226011092250139
:1000E00010922401109223010895853921E192078D
:1000F00038F084E991E190932401809323010895DD
:100100008436910538F484E690E09093240180933E
:100110002301089590932401809323010895E7E03B
:10012000F1E05183408393838283758364830895D0
:10013000FC012181211106C02281211103C083818C
:10014000882341F088EE93E09093010180930001B1
:1001500081E00895209100013091010121153105C0
:1001600039F021503109309301012093000181E0E1
:100170000895FC011286138614861586168217824E
:10018000108611860895CF92DF92EF92FF920F931F
:100190001F93FB01309709F46EC0009709F46EC0FD
:1001A0008C0120E030E0B901A801440F551F661F03
:1001B000771F440F551F661F771F440F551F661F7B
:1001C000771F440F551F661F771F440F551F661F6B
:1001D000771F400F511F621F731F440F551F661F6B
:1001E000771F440F551F661F771F440F551F661F4B
:1001F000771F440F551F661F771FDB01CA01880F49
:10020000991FAA1FBB1FAC01BD01400F511F621FE8
:10021000731F6A017B01CC0CDD1CEE1CFF1CD70197
:10022000C601880F991FAA1FBB1F880F991FAA1FFD
:10023000BB1F880F991FAA1FBB1F880F991FAA1FDA
:10024000BB1F880F991FAA1FBB1F8C199D09AE09E0
:10025000BF09BC01CD01600F711F821F931F9F0159
:1002600040E050E00BD72115310581E048075105EA
:1002700040F4C90108C080E090E005C080E090E053
:1002800002C08FEF9FEF1F910F91FF90EF90DF90D3
:10029000CF9008950F931F93552384F489019A01F9
:1002A000060F171F281F391F601771078207930752
:1002B000D4F4A0E0F0E0E0E090E822C012161306CB
:1002C00014061506ACF489019A01060F171F281FA2
:1002D000391F061717072807390774F4AFEFFFEF28
:1002E000EFEF9FE70DC0A02FF12FE22F932F08C053
:1002F000A62FF72FE82F04C0A02FF12FE22F932F66
:100300006A2F7F2F8E2F1F910F910895CF92DF922A
:10031000EF92FF92552384F46B017C01C21AD30A39
:10032000E40AF50AC616D706E806F906D4F43FEF44
:100330002FEF4FEF9FE722C0121613061406150683
:10034000ACF46B017C01C21AD30AE40AF50A6C15FD
:100350007D058E059F0574F430E020E040E090E8D4
:100360000DC03C2D2D2D4E2D9F2D08C0362F272F33
:10037000482F04C03C2D2D2D4E2D9F2D632F722F05
:10038000842FFF90EF90DF90CF9008954F925F926F
:100390006F927F928F929F92AF92BF92CF92DF9295
:1003A000EF92FF92CF93DF93EA01722E6C01E12C62
:1003B000F12CC61AD70AE108F1082E813F81488541
:1003C0005985C701B601A2DF4B015C01CE82DF82F5
:1003D000E886F9866A857B858C859D85A7019601CF
:1003E00059DF6A877B878C879D87772029F01A865B
:1003F0001B861C861D861BC04A885B886C887D888E
:1004000046165706680679062CF44A865B866C8683
:100410007D860DC04E845F84688879886415750573
:100420008605970524F44A865B866C867D866881FE
:1004300070E080E090E0A7019601F3D5298130E0DB
:1004400040E050E03DD669017A012A853B854C8524
:100450005D856A8170E080E090E0E3D52B8130E03B
:1004600040E050E02DD629013A016C8170E080E037
:1004700090E0A5019401D5D52D8130E040E050E019
:100480001FD649015A01A3019201C701B60102DF3B
:10049000A5019401FFDEDF91CF91FF90EF90DF90F7
:1004A000CF90BF90AF909F908F907F906F905F9014
:1004B0004F9008959C0140E050E070E080E090E0B3
:1004C000B0D524E630E040E050E0D8D52115310524
:1004D00081E04807510510F4C90108958FEF9FEF9F
:1004E0000895CF92DF92EF92FF920F931F93CF93D5
:1004F000DF938B017A01E901672B41F0FA01228138
:100500003381232B19F421E0288301C018820115BF
:10051000110519F060EACEDF02C080E797E1F7012C
:10052000228133818217930718F481E0898301C007
:1005300019820115110529F068E7C801BBDF6C01BC
:1005400006C00F2EF0E7CF2EF7E1DF2EF02D0115BC
:10055000110521F060E5C801ADDF02C080E090E048
:10056000F70124813581C216D30618F421E02A83CD
:1005700001C01A82F701248135812817390728F430
:10058000892B19F081E08B8301C01B82F7018081E8
:10059000918180579741813E9E4218F081E08C8383
:1005A00001C01C82DF91CF911F910F91FF90EF90BE
:1005B000DF90CF900895CF93DF93609125017091E4
:1005C000260122E031E047E051E080912301909143
:1005D000240187DF82E091E0ABDD882349F060E011
:1005E00081E089D38DE091E0C4DDC0E0D0E028C097
:1005F000209102016091090170910A014DE051E0E2
:100600008091230190912401C1DE613127E27207BC
:10061000810591053CF464367105810591052CF046
:10062000EB0105C0C0E1D7E202C0C0E0D0E06091BC
:10063000070170910801CE01A6DDBC0181E079D3EC
:10064000D0932601C0932501DF91CF910895A5D2C3
:1006500060E082E050D380E08CD3109227010895AF
:10066000613071F0623011F5843160F1883260F1EF
:100670008C3360F1803560F1843660F580E149C0EB
:100680008A3050F1843150F18E3150F1883250F17E
:10069000823350F18C3350F1863450F1803550F173
:1006A0008A3550F1843650F580E333C0843140F10F
:1006B000883240F18C3340F1803540F1843640F58A
:1006C0008FE127C081E025C082E023C084E021C003
:1006D00088E01FC080E21DC081E01BC083E019C01C
:1006E00082E017C086E015C084E013C08CE011C022
:1006F00088E00FC088E10DC080E10BC080E209C036
:1007000081E007C083E005C087E003C08FE001C03F
:100710008FE3809327010895809127012AD30895BC
:10072000682F82E0E8D20895CF93DF9300D01F9224
:10073000CDB7DEB7FC01ADE4B1E01C92808111962B
:100740008C93119712961C92129713961C921397E2
:1007500014961C92A8E4B1E01C92818111968C93AE
:10076000119712961C92129713961C921397149637
:100770001C92A3E4B1E01C92828111968C93119794
:1007800012961C92129713961C92139714961C9211
:100790009681AEE3B1E09C93838111968C9311977F
:1007A00012961C92129713961C92139714961C92F1
:1007B0008781A9E3B1E08C93248111962C93119742
:1007C00012961C92129713961C92139714961C92D1
:1007D000A4E3B1E01C92258111962C9311971296F7
:1007E0001C92129713961C92139714961C9221E058
:1007F0002983913011F49A8301C01A82813011F457
:100800008B8301C01B82CE01019675D10F900F9092
:100810000F90DF91CF9108958330B1F028F48130AB
:1008200049F0823061F024C08530C1F090F086300C
:10083000D1F01EC0809128019091290108958091E6
:100840002A0190912B01089580912C0190912D0106
:10085000089580912E0190912F010895809130018B
:100860009091310108958091320190913301089562
:100870008FEF9FEF0895833091F028F4813049F095
:10088000823051F018C0853081F060F0863081F000
:1008900012C080915001089580914B01089580917C
:1008A0004601089580914101089580913C01089589
:1008B00080913701089580E00895833091F028F405
:1008C000813049F0823051F018C0853081F060F0FD
:1008D000863081F012C080915101089580914C01C1
:1008E0000895809147010895809142010895809173
:1008F0003D01089580913801089580E0089590E0C9
:100900008730910510F5FC01EC5EFF4F09941092C1
:10091000510110924C011092470110924201109225
:100920003D011092380108951092510108951092DE
:100930004C010895109247010895109242010895C4
:1009400010923D0108951092380108950F931F935E
:10095000CF93DF9381E055D19C01220F331F220FEB
:10096000331F820F931F880F991F880F991FC8E2AA
:10097000D1E09983888382E044D19C01220F331F08
:10098000220F331F820F931F880F991F880F991F03
:100990009B838A8383E035D19C01220F331F220F72
:1009A000331F820F931F880F991F9D838C8384E0D0
:1009B00028D1002496958795079496958795079456
:1009C000982F802D0DE010E0B80144D37F836E8313
:1009D00085E017D10024969587950794969587957D
:1009E0000794982F802DB80135D37987688786E0E2
:1009F00008D1002496958795079496958795079436
:100A0000982F802DB80126D37B876A87DF91CF91FD
:100A10001F910F910895FC018181861302C091E01E
:100A200001C090E08381981759F08281841728F0E3
:100A3000938381E08483128208958F5F8283089577
:100A40001282089581E019D14AE0682F8DE491E087
:100A5000E2DF82E012D14AE0682F88E491E0DBDF38
:100A600083E00BD14AE0682F83E491E0D4DF86E095
:100A700004D14AE0682F84E391E0CDDF80913E010C
:100A8000813039F084E0F9D04AE0682F8EE391E0BC
:100A9000C2DF80913901813039F085E0EED04AE043
:100AA000682F89E391E0B7DF089550DFCBDF089529
:100AB000882311F080E0089581E00895813019F0D5
:100AC0008230A1F008956B3F710510F06AEF70E07D
:100AD00080915401882329F07093890060938800E5
:100AE00008951092890010928800089570938B00E9
:100AF00060938A0008952091530121114DC0FC019B
:100B0000218120935601228120935501E4E6F0E0F3
:100B100020812E7F208322B3246022BBEEE7F0E009
:100B200020812F60208320915601213019F42081EB
:100B30002061208320915501213029F4EEE7F0E077
:100B400020812062208320E420937C00EAE7F0E00B
:100B5000108220812660208310927B00FC0180811E
:100B6000882331F0EAE7F0E080818068808305C067
:100B7000E4E6F0E080818160808384B18E7384B983
:100B800085B18E7385B987B18F7487B988B18F7439
:100B900088B981E0809353010895809152018111B9
:100BA0002FC085B1897F85B984B1866084B98BB146
:100BB000807C8BB98AB18F638AB980EA8093800088
:100BC000E1E8F0E080E180831092820010928500DD
:100BD00010928400109289001092880010928B006D
:100BE00010928A0080E091E09093870080938600C5
:100BF0008081816080831092540181E08093520152
:100C00000895E82F80917A0088238CF58E2F90E04C
:100C1000FC013197E930F10568F5E55EFF4F099475
:100C200020E00FC022E00DC023E00BC024E009C08B
:100C300025E007C028E005C024E103C025E101C08C
:100C400021E0ECE7F0E09081907F90838081822B1F
:100C50008083EAE7F0E080818064808380917A007D
:100C600086FDFCCF809178009091790008958FEFF8
:100C70009FEF08958FEF9FEF089590E0FC0131976B
:100C8000E930F10548F5EC5DFF4F099483B18170BF
:100C90000FDF27C083B180740BDF23C083B180785E
:100CA00007DF1FC0809156018130C1F086B180718D
:100CB00018C080915501813099F086B1807211C0C1
:100CC00086B180780EC08CB182700BC08CB18470FC
:100CD00008C08CB1887005C08FEF03C08FEF01C0D2
:100CE0008FEF8F3F21F0882321F081E008958FEF6F
:100CF000089580E00895CF93C82F643688F4662362
:100D000091F0862F90E0A0E0B0E06627782F892F41
:100D10009A2F24E630E040E050E0B0D1B90105C0A0
:100D200060E071E002C060E070E08C2FC7DECF9120
:100D30000895CF93C82F6F3F8FEF780789F0611523
:100D4000710589F0CB01A0E0B0E06627782F892FEC
:100D50009A2F2FEF3FEF40E050E090D1B90105C04E
:100D600060E071E002C060E070E08C2FA7DECF9100
:100D700008959BB19F73981739F09BB1907C9BB9F4
:100D80009BB18F73892B8BB9089581E080935401B7
:100D90000895CF93DF93D82FC0E002C086DECF5FE7
:100DA000CD17E0F381E038DD90936901809368010D
:100DB00082E032DD909367018093660183E02CDD51
:100DC000909365018093640184E026DD9093630134
:100DD0008093620183E04FDD8093610182E04BDD0F
:100DE0008093600181E047DD80935F0184E043DD13
:100DF00080935E0185E03FDD80935D0186E03BDD11
:100E000080935C01DF91CF9108951F93CF93DF937F
:100E1000C82F84E052DD182F85E04FDDD82F84E005
:100E20006EDD85E06CDD112349F080915E01882341
:100E300029F0CB3510F4C65F01C0C4E6DD2349F0CC
:100E400080915D01882329F0CA3010F0CA5001C09A
:100E5000C0E08C2FDF91CF911F910895CF93DF9346
:100E6000C82F86E02ADDD82F86E049DDDD2349F052
:100E700080915C01882329F0C23010F4CF5F01C05B
:100E8000C0E08C2FDF91CF91089580916101811195
:100E900012C080916001882359F0809159018130FE
:100EA00021F0823051F484E6089580915A0108952A
:100EB00080915A01089580E0089580E008950F938D
:100EC0001F93843608F05BC0882309F45BC090E070
:100ED000A0E0B0E08C019D01000F111F221F331F05
:100EE000000F111F221F331FB901A801440F551F06
:100EF000661F771F440F551F661F771F400F511F36
:100F0000621F731F481B590B6A0B7B0B8A019B01E5
:100F1000000F111F221F331F000F111F221F331F2D
:100F2000B901A801481B590B6A0B7B0B8A019B0175
:100F3000000F111F221F331F000F111F221F331F0D
:100F4000D901C801880F991FAA1FBB1F880F991FBD
:100F5000AA1FBB1F880F991FAA1FBB1F880F991FAD
:100F6000AA1FBB1FBC01CD01601B710B820B930B31
:100F700024E630E040E050E081D0C90105C084E9BA
:100F800091E102C080E090E01F910F910895CF930E
:100F9000DF93CDB7DEB728970FB6F894DEBF0FBE4C
:100FA000CDBF1B8281E08A8389831F821C821886C1
:100FB0001D821E82CE010196B7DB49DB5FD881E03E
:100FC000E8DE40916801509169016091660170917D
:100FD00067018091640190916501A1D880915A01C7
:100FE00014DF80935A018091590138DF80935901B1
:100FF0004CDF80935B0163DF90935801809357012E
:1010000074D8D9DA61E080915B012ADB80915F01BD
:10101000882319F08AE084DB02C082E381DB7CDB79
:10102000CECFEE27FF27AA27BB2708C0A20FB31FEA
:10103000E41FF51F220F331F441F551F96958795F8
:101040007795679598F37040A9F7009799F7BD01D8
:10105000CF010895AA1BBB1B51E107C0AA1FBB1FEC
:10106000A617B70710F0A61BB70B881F991F5A9534
:10107000A9F780959095BC01CD010895A1E21A2EA3
:10108000AA1BBB1BFD010DC0AA1FBB1FEE1FFF1F2C
:10109000A217B307E407F50720F0A21BB30BE40B7C
:1010A000F50B661F771F881F991F1A9469F76095C3
:1010B0007095809590959B01AC01BD01CF0108957D
:1010C000052E97FB16F400940FD057FD05D0D6DF00
:1010D00007FC02D046F408C0509540953095219504
:1010E0003F4F4F4F5F4F0895909580957095619554
:0C10F0007F4F8F4F9F4F0895F894FFCF63
:00000001FF
